:100000000AC019C018C017C016C015C014C013C04C
:1000100012C011C010C011271FBFCFE5D0E0DEBF56
:10002000CDBF20E0A0E4B0E001C01D93A234B20730
:10003000E1F795D0A9C0E4CF42EC4EBD4AE14DBDF9
:1000400017BD16BD4FE750E053BD42BD4FE350E032
:1000500055BD44BD41E041B943B942E04BBB43E823
:100060004DBB08950AB502FFFDCF4AB544604ABDB5
:100070000895CF93DF93C82FD92F11A910A918176E
:10008000190754F4EFDF40A151A14F5F5F4F51A911
:1000900040A94C175D07B4F3DF91CF910895EE9A14
:1000A000EE99FECF49B3483868F549B34B3668F549
:1000B00049B34C3468F549B34A3368F549B3403322
:1000C00068F549B3483268F549B3433268F549B336
:1000D0004F3168F549B34B3168F549B3493168F59B
:1000E00049B3473168F549B3453168F549B3433100
:1000F00068F549B3423168F549B3413168F58FE09D
:1001000090E0089580E090E0089581E090E0089507
:1001100082E090E0089583E090E0089584E090E02C
:10012000089585E090E0089586E090E0089587E0E6
:1001300090E0089588E090E0089589E090E00895C7
:100140008AE090E008958BE090E008958CE090E0E4
:1001500008958DE090E008958EE090E008956CDFC2
:100160009EDF8117910711F411B902C041E041B936
:10017000880F991F880F991F880F991F97BD86BDFB
:0C01800082E390E076DFECCFF894FFCF34
:00000001FF
